:020000041000EA
:1000000000B5324B212058609868022188439860DF
:10001000D860186158612E4B002199600221596106
:100020000121F02299502B49196001219960352056
:1000300000F044F80222904214D00621196600F024
:1000400034F8196E01211966002018661A6600F04E
:100050002CF8196E196E196E052000F02FF8012189
:100060000842F9D1002199601B49196000215960AB
:100070001A491B48016001219960EB211966A021F2
:10008000196600F012F800219960164914480160C1
:100090000121996001BC002800D000471248134993
:1000A000086003C880F30888084703B5996A0420EC
:1000B0000142FBD001200142F8D103BD02B5186610
:1000C0001866FFF7F2FF186E186E02BD00000240BE
:1000D000000000180000070000035F00212200005C
:1000E000F4000018222000A00001001008ED00E03C
:1000F00000000000000000000000000074B24E7A12
:1001000000200420F7010010CB010010CD010010E9
:10011000C9010010C9010010C9010010C901001077
:10012000C9010010C9010010C9010010CF01001061
:10013000C9010010C9010010D1010010D301001045
:10014000C1010010C1010010C1010010C101001067
:10015000C1010010C1010010C1010010C101001057
:10016000C1010010C1010010C1010010C101001047
:10017000C1010010C1010010C1010010C101001037
:10018000C1010010C1010010C1010010C101001027
:10019000C1010010C1010010C1010010C101001017
:1001A000C1010010C1010010C1010010C101001007
:1001B000C1010010C1010010C1010010C1010010F7
:1001C000EFF30580103800BE00BE00BE00BE00BECA
:1001D00000BE00BEF2EB887168190010841900108F
:1001E0003802001090A31AE71E481F49086006C88D
:1001F00081F3088810471D480068002801D019487D
:10020000F3E70DA40ECC002902D000F012F8F9E7B4
:100210001749184A002000E001C19142FCD116495B
:100220008847164988471649884700BEFDE701C937
:1002300001C29A42FBD3704784190010C00000200D
:10024000EC010020B01A001000000420000004207F
:10025000B01A00100010042000100420000000005C
:10026000704700000000000008ED00E0000000D032
:10027000EC01002074070020091400109D030010F9
:1002800001140010F8B5C0460448054B10B5834270
:1002900003D0044B002B00D0984710BDEC01002088
:1002A000EC0100200000000006480749091A8B10E5
:1002B000C90FC91810B5491003D0044B002B00D04A
:1002C000984710BDEC010020EC0100200000000068
:1002D00010B5074C2378002B09D1FFF7D5FF054B4C
:1002E000002B02D0044800E000BF0123237010BDA2
:1002F00070050020000000006C180010054B10B5C0
:10030000002B03D00449054800E000BFFFF7CCFFF5
:1003100010BDC04600000000740500206C180010DD
:100320001C4A84B01368002313600293029B0E2BB7
:1003300011DC0021184A0391039B934205DC039BC7
:1003400001330393039B9342F9DD029B0133029334
:10035000029B0E2BEFDD0F4A030411680B43136061
:1003600000230093009B1D2B11DC00210A4A019100
:10037000019B934205DC019B01330193019B934256
:10038000F9DD009B01330093009B1D2BEFDD04B0D2
:100390007047C046100000D01FA107001D4A30B5AD
:1003A00013681D498BB00B40136090221B4952000B
:1003B0000B6813409342FBD10523194A1360194A75
:1003C0001360194A1360194A13608022184B5202B5
:1003D00019680A431A608022196892020A431A6057
:1003E00080221968D2020A431A6080221968120317
:1003F0000A431A600F4B01AA13CB13C213CB13C2CB
:1004000013CB13C201AC01CCFFF78AFF0AAB9C42AD
:10041000F9D1F7E700C00040DFFEFFFF08C0004051
:10042000844001408C400140944001409C40014088
:10043000200000D06C1800100FB400B5084883B03D
:1004400001F00CF9049B002B07D005A918000191BD
:1004500000F0BCFF034801F001F9012000F0CEFFDD
:1004600090180010A018001070B58C461600EFF31D
:10047000108472B60F490B68002BFCD0BFF35F8F5E
:100480006346DB08C5180722C05C63461A40012397
:1004900093401A000240034207D118432870BFF36B
:1004A0005F8F0A6084F3108870BD61463000FFF7EB
:1004B000C3FFC0462C0100D0044A1078431CDBB2B5
:1004C000172B00D9102313707047C04698010020E5
:1004D0000021044B044ABFF35F8F02C39342FAD159
:1004E0007047C046000100D0800100D0084B094A87
:1004F0001360094A1360094A1360094A1360094AE4
:100500001360094A1360094A1360094A136070476F
:100510008080808000E400E004E400E008E400E083
:100520000CE400E010E400E014E400E018E400E073
:100530001CE400E01F2318401E3B8340002905D027
:10054000C021044A4900535013607047802201497A
:100550008B50FAE700E100E070B50D00EFF3108674
:1005600072B60F4A1368002BFCD0BFF35F8F0D4BA0
:1005700010309B6884001B590B4A934203D09D4264
:1005800001D000F009FD074B9B681D51BFF35F8F41
:10059000BFF35F8F0022024B1A6086F3108870BD94
:1005A000240100D000ED00E0C1010010024BC91889
:1005B000890001607047C0464000003470B5114C9E
:1005C000114DAC420FD2FF262368002B0CD0FFF751
:1005D00073FF01002000FFF7E9FFA680BFF35F8FE4
:1005E0000834AC42F0D370BDFFF766FF0100200075
:1005F000FFF7DCFF2671BFF35F8F0834AC42E3D313
:10060000F1E7C046E4010020EC0100200A4B196824
:10061000EFF3108072B60A68002AFCD0BFF35F8F38
:100620001B68BFF35F8F00221A6080F3108840BF01
:10063000002000217047C04670070020F0B5DE465C
:1006400057464E464546E0B585B0EFF30583032295
:100650001A40B34B91005F58012393409B4602928E
:100660005A468846AF4B1A60AF4B03935B46AF4880
:1006700043630823FE5E002E37DABB881BB2002BD3
:1006800000DBA4E0BB79002B00D0E5E00823F95E95
:10069000002920DB4B007A695B18DB00D3189D68CA
:1006A000DC686B1C00D104E1A04801004144826A6F
:1006B0000B69AE1A9B1A9E4215D30123026A029857
:1006C00083401A420FD0994800F0C0FA8C4202DCF5
:1006D000CCD18542CAD940BF05B0F0BCBB46B246BA
:1006E000A946A046F0BD0D61EDE77A697300914619
:1006F0009B19DB0099444B469C68DD6800F0A6FA24
:100700008D42BADC00D1F6E0002D00DADBE04A468B
:100710004B4652691B699246039A934200D1CCE042
:100720004A460821785E5288000451461043984793
:10073000009001910099019A0B00134300D1C2E08F
:1007400013000A00002B00DBD9E020002900801AEA
:1007500099414B469860D96000229B5E002B00DADD
:100760008BE75D007C69EA18D200A21800949468B7
:10077000D268A2468A4200DD7FE702D1844200D9D6
:100780007BE70824A4463B81BC44009C00972F00D3
:100790006546B4463E0006E05E00F218D200A2189C
:1007A0009768D268BA468A4207DC00D1B4E0F318F1
:1007B000DB00E518E35E002BEEDA66464A46009F52
:1007C00013802E80BB881BB2002B00DA5AE73A69EF
:1007D000EFF3108172B61368002BFCD0BFF35F8F6C
:1007E0000123BE885B42BB8036B23B69BFF35F8F9B
:1007F00000221A6081F31088002E00DA42E73B00E5
:1008000008333A0099467D6973009B190824115FEB
:10081000DB004846EB18002913DB9C680093A446D4
:10082000DC6806E0A34240D00023F95E38000029CE
:1008300006DB4F007F18FF00EF19FB68A342F1DDD4
:10084000009B068000201E5E1980002EDCDA170057
:10085000BB79002B00D119E70023BB710823F95E97
:100860004B1C00D137E73D000835AC467C6903E0FE
:1008700084464B1C00D109E74B005B18DB00E018F5
:100880000A00E15E43881BB2002BF1DA01256D42BC
:10089000EE178560C66008257B5F9342E9D063460A
:1008A00019803B8903803A81E3E7BB686345BBD984
:1008B000C6E7631C00D0F7E605E7534650461B69C0
:1008C0009847002823D14B461B883A693B81EFF3B8
:1008D000108372B611680029FCD0BFF35F8F4946C0
:1008E0007A880A803A697E80BFF35F8F00211160A9
:1008F00083F31088C1E6844200D805E7BDE60B48C3
:1009000000F0A4F9009B019CC018614121E7534607
:100910000CCB009201930DE7824500D847E74CE7E6
:100920005C0700203C7005403D060010004005407B
:1009300070B52D4C2569002D04D00A212B48FFF7F6
:1009400035FE70BD2A4E0321294800F075F9E66096
:10095000FFF7B2FD274B0322C018D02322701B06DD
:100960001B6801216370244B8000A3600F2320616A
:100970000220638063694942A1801980023119868F
:1009800047311D83585218315A5275325C39995289
:10099000183201319952183201319952183201310D
:1009A0009952083518329D52023118329952183234
:1009B000013199521832013199521832013199524C
:1009C0001832013199521832013199520B4B0C49AE
:1009D000DC6001303562FFF7BFFD01210320FFF726
:1009E000A9FD084B1D60A8E79C01002070070020AE
:1009F0000040054040000034FFFF10005C0700206D
:100A00003D0600103860054070B582B00092019339
:100A100001000269EFF3108472B61368002BFCD05A
:100A2000BFF35F8F0223C85E0D6900283FDB4A6970
:100A3000430016001B18DB00D218F35A4B80BFF39B
:100A40005F8F00232B6084F31088069B1361079B44
:100A50005361009B019C9360D460538801335B0415
:100A60005B0C1D1C002B20D0ACB20304558023432B
:100A70000D69EFF3108C72B62C68002CFCD0BFF31C
:100A80005F8F8C88148088800A69BFF35F8F002095
:100A900010608CF310880A7801309040CA680849C9
:100AA00052181060180002B070BD0125DCE7BFF3DA
:100AB0005F8F00232B6084F31088013BF2E7C04670
:100AC0003C20000010B543890A1493421ADD5300FC
:100AD0009B184269DB00D3180469EFF3108C72B6DF
:100AE0002268002AFCD0BFF35F8F5A88090494B2B1
:100AF000090C8A4208D00369BFF35F8F00221A6095
:100B00008CF31088002010BD094A22435A8001232B
:100B100002698371BFF35F8F002111608CF310882D
:100B2000027804499340C268012052181360EAE732
:100B30000080FFFF3C200000F0B5CE46474680B560
:100B400004000D0085B0EFF305868946002E10D015
:100B5000364900204B6AAB4206D38A6A5B1B591E9A
:100B60008B41A2424041184305B0C0BCB946B046D3
:100B7000F0BD2F4FFB683A7898461800039200F0BA
:100B800065F8039A131D42469B009B5822001B1ACE
:100B90009C462B00121A8B419E4210DC0DD020BFC8
:100BA000224A0020536A4B45DED3926A5B1B591ED2
:100BB0008B41A24240411843D6E79445EFD900F05B
:100BC0004DF822002B00121A8B41002B1BDB002357
:100BD0000193184B2200009338002B00FFF714FFFD
:100BE000002810DD114B5A6A4A451CD39B6AA34268
:100BF00017D301003800FFF765FF0C4A0020536A45
:100C00004B45B1D3D1E7094A0020536A4B45ABD3DA
:100C10000020926A5B1BA24240415A1E9341184336
:100C2000A2E74A45E5D120BFE3E7C04600400540C2
:100C30009C0100200D06001010B5024A0248FFF783
:100C400013FC10BDA4180010240700200300416A03
:100C50000A00986A596A8A42FAD17047034B596A66
:100C60000A00986A596A9142FAD1704700400540DB
:100C7000F8B5DE464E4645465746E0B505008B467C
:100C800018000A99914600F0B3FA0A9B6C001E0204
:100C90006419304BA400E418636880469E4200D972
:100CA00066602F1FFBB29A46012B2FD9C0238022EA
:100CB000294FAD009B0179591201E3181A600029F0
:100CC0001BD14B4622685B015340E0221340802237
:100CD0005201A21813605346012B2FD98023802282
:100CE0009B01E31812011A60434666607B51F0BC19
:100CF000BB46B246A946A046F8BD786900F078FA2E
:100D0000013043001B18033BFDD2DAE75B46012BA1
:100D1000CCD1C02303229B01E3181A60023AA368D6
:100D20001A42FCD04A46236852015A40E02313403D
:100D300080225201A218084F1360AD0058460323C9
:100D4000216841400B40136001228240A3681A428F
:100D5000FCD0C3E70080004028070020F0B5D6464D
:100D60004F464646440098462418324BA400E418E7
:100D700063688A469146C0B5FF2B02D880235B008A
:100D80006360061FF6B2012E2FD9C02380222A4F9E
:100D900085009B0179591201E3181A6000291BD1C3
:100DA0004B4622685B015340E022134080225201EF
:100DB000A2181360012E30D9802380229B01E318F2
:100DC00012011A6080235B00636043467B51E0BCE4
:100DD000BA46B146A846F0BD786900F009FA01307C
:100DE00043001B18033BFDD2DAE75346012BCCD15D
:100DF000C02303229B01E3181A60023AA3681A4237
:100E0000FCD04A46236852015A40E0231340802216
:100E10005201A218084F1360850050460323216831
:100E200041400B40136001228240A3681A42FCD06B
:100E3000C2E7C0460080004028070020014B800028
:100E4000C058704728070020F0B5C646040000B51A
:100E50002348160098460D0000F0CAF90100300042
:100E600000F0C6F94346069A1B04120313439C463E
:100E700023680600002B22DB1A4B1B48E218531E86
:100E80009A4180235242120B9B011203D218174B36
:100E90001A60174B1A60130001688B43FBD12122A3
:100EA000144B2560E318A6601A602268002AFCDA59
:100EB0006246E26008221A6080BCB846F0BD3F235B
:100EC00022681340AB42D7D1A3681B051B0D834298
:100ED000D2D1EE22E368D20213406345CCD1EBE7D6
:100EE000001BB7000040FDBF08C0004000E000400C
:100EF00000F00040043000008023024A9B000B43B6
:100F0000D362704700800540002310B50100988A25
:100F10001B8B984710BDC046162310B501001888DA
:100F20005B88984710BDC046F8B54746CE4680B5A9
:100F30000F1E18D0142399460433040000250126FF
:100F400098464B461888434621681B88984701C439
:100F5000431E984101350640AF42F2D13000C0BC7B
:100F6000B946B046F8BD0126F8E7C046AA23064AAE
:100F70001B0113608D235B00D3600449044B19608F
:100F80005368002BFCDA70470040024000B0FA00C2
:100F9000006002407047C04610B50148FFF74CFAA8
:100FA000C818001070B5074D074EB54209D200248D
:100FB000013E761BB608013608CD01349847B4428D
:100FC000FAD170BD2818001064180010054B064AAD
:100FD00006491A60064A074B1A6010000B689843CE
:100FE000FBD1704700E00040BFCDFBFE08C00040D1
:100FF000FE7F3C0000F00040044BDB6C002B03D173
:101000008022034BD2021A607047C0460000115084
:101010004C201150044A054B1A60054A1368DB0145
:101020008033FBD17047C046FFFFFF0100F0004056
:1010300008C000404022034B9A675A671A67DA6675
:101040007047C04600F0014010B5FFF741FA10BDEF
:1010500070B52849284D294E6D1AAC102200302C4D
:1010600000D930223000920000F0A2F9BC2D3DD80A
:1010700023002A3B224A052B1DD9302075196D0704
:10108000A446001BEB0F002D03DA611C8C46A10067
:101090007250C01AE3189B004108F318C900C91820
:1010A0001A605A6008339942FAD1012303421DD0D5
:1010B000984360440400A300F250631C2F2C15D009
:1010C0009B00F250A31C2E2C10D09B00F250E31C6E
:1010D0002D2C0BD09B00F250231D2C2C06D09B00F6
:1010E000F250631D2B2C01D09B00F250054B9E60EB
:1010F00070BDC04600010010C001001000000020BB
:10110000C101001000ED00E0002310B5294C82B0B1
:10111000A367FFF72BFF0122274B1A60636C012B9B
:10112000FCD10322254B1A60224A936B012BFCD180
:10113000013300930121224A22480433FFF784FE41
:10114000052301210093204A2048FFF77DFE00225D
:10115000022104201E4BFFF701FE00220121052081
:101160001C4BFFF7FBFD0022002107201A4BFFF765
:10117000F5FD002200210820174BFFF7EFFD80232B
:10118000DB000093002200210920134BFFF770FDC4
:101190000022104B00210620FFF7E0FD0420FFF79E
:1011A0004DFE0E4900F024F801000020FFF7A4FED8
:1011B00002B010BD008000403CB0004030B00040A4
:1011C000002F685900800240008C864700C0024012
:1011D000001BB70040597307006CDC0240420F004F
:1011E00001480421014B1847C0010020290F0010BD
:1011F000114A936F9B0813D210665166002905D0DF
:10120000FFE7FFE7FFE7516F106F704704B5002855
:1012100001D00020C04300F0F7FA002104BDC04611
:10122000F0B5146E556E576F166FFFF7E5FF146635
:10123000556657671667F0BD000000D0132370B5E0
:101240001D78012D19D014DD1F48FFF765FE06003B
:101250001E48FFF761FE1E4C80223100200000F086
:10126000A7F8022D2DD01B48FFF74EFE1A4B186031
:1012700070BD1A4B164CA364F5E7184B144C236051
:101280006360A360E36023616361A361E361236240
:101290006362A362E36223636363A363E363236420
:1012A0006364A364E36423656365A365E365236600
:1012B0006366A366E36623676367A367E367A36464
:1012C000D1E7064BA364CEE7534400005346000029
:1012D000700300204C3300006C070020E112001066
:1012E00007B5604601880A0A0230DF2AFAD1C9B27E
:1012F000820804D3028840880004104300E000689C
:10130000014A5050039007BD70030020132310B50D
:101310001C781348FFF700FE012C0BD004DD010000
:101320008022104800F044F80F48FFF7EDFD0F4B06
:10133000186010BD0B4C01005422200000F038F85A
:101340000B4B6365A365E36523666366A366E3668B
:1013500023676367A367E3672362E361E4E7C0464B
:1013600053460000700400204C3300006C0700203E
:101370007513001007B5604601880A0A0230DF2A9B
:10138000FAD1C9B2820804D302884088000410430D
:1013900000E00068014A5050039007BD700400202F
:1013A00001480421014B1847D0010020290F0010EB
:1013B000014B5B6818470000D001002010B50028E1
:1013C00000D110BD00F000F9FBE7C04610B5094A96
:1013D0000300146884B0002C08D001220091064854
:1013E000524203A9A047012004B010BD00F036F915
:1013F0000020F9E758070020BD13001000BEFDE7EC
:1014000010B5FFF7FBFFC04670B5FFF7CBFD074DEA
:10141000074EB54209D20024013E761BB6080136BC
:1014200008CD01349847B442FAD170BD6418001059
:101430006C180010030010B5080011001B689847D5
:1014400010BDC046F8B5437D07000D001600002B07
:1014500038D0002A1ADD0B780A2B18D00020012E74
:1014600009D0012421006B5C01340A2B1AD0B4424C
:10147000F8D1864203DD311A3B6828189847AD1928
:10148000013D2B780D3B5A4253413B75F8BD037D1E
:10149000002BE3D102210E483B689847012EEED085
:1014A0000120DEE76B1E5B5C0D2BE0D0884203DA87
:1014B000091A3B6828189847054802213B68984755
:1014C0002000D4E70368110028009847DEE7C046F3
:1014D00064190010F0B54646D6464F46C0B582B0F6
:1014E00090461C0006000D00FFF7B8FB00232F4AB2
:1014F00012184B41002B02DA01222D4B52422D498A
:1015000008008A4600F088F981466B1C03D1300040
:1015100000F0E2F80500002C27D0274F274B1C686D
:10152000002C18D04346002B21D1254B984602E0D1
:101530002469002C0FD02368002BF9D043461B6888
:10154000002B01D09C42F3D120002A003100B84783
:101550002469002CEFD14B46002B23D1280002B088
:10156000E0BCBA46B146A846F0BD164FD6E7144BCC
:10157000984602E02469002CEDD02368002BF9D0B6
:1015800043461B68002B01D0A342F3D12A0031004F
:101590002000B8476B460A222000DA71D91D093AAB
:1015A000B847E7E7504600F027F9D7E740420F0079
:1015B000FFFFFF7FE40100204514001050070020CA
:1015C0005407002035140010F0B5CE46474680B5CC
:1015D00083B06B460600DD1D2870FFF73FFB00233C
:1015E000194A12184B41002B02DA0122174B5242C2
:1015F00017490800894600F00FF9164B80461C6811
:10160000002C14D0144F02E02469002C0FD0236862
:10161000002BF9D03B68002B01D09C42F4D1200074
:1016200001222900FFF70EFF2469002CEFD1434669
:10163000002B05D1300003B0C0BCB946B046F0BDA8
:10164000484600F0D9F8F5E740420F00FFFFFF7F62
:10165000E4010020500700205407002070B504006A
:1016600000F03AF801230100050001222000FFF7F5
:1016700031FF084B1C68002C06D06368002B05D096
:1016800098472469002CF8D1280070BD2469002CEB
:10169000F3D1F9E75007002010B501000023002224
:1016A000002000F047F810BD70B5074C074D641BD3
:1016B000A41005D0013CA300EB589847002CF9D1A9
:1016C00000F098F870BDC0466C1800106C1800103F
:1016D0007047C0467047C04610B583070AD0030064
:1016E000032102E001330B4205D01A78002AF9D118
:1016F000181A10BD030019680C4A0D4C8A188A4349
:1017000022420FD15968094A04338A188A43224277
:1017100008D15968054A04338A188A432242F1D015
:1017200000E001331A78002AFBD1E1E7FFFEFEFE5C
:1017300080808080F0B5D6464F4646469846244B7A
:10174000C0B5060018689A460F009146FFF7C0FF23
:10175000204B1D68002D32D053466C6818681F2C32
:1017600030DC002E0CD1631C0234A4006B60675186
:10177000FFF7B0FF0020E0BCBA46B146A846F0BD76
:1017800049468822A300EB189950C42149008C4691
:10179000AC446146873AA2400968914611436246CB
:1017A00011608421424649005A50022EDBD12900A3
:1017B0004A468D31FF310B6813430B60D3E7064D6A
:1017C0001D60C9E7FFF786FF01204042D3E7C0460E
:1017D000E00100208C05002090050020034B10B58F
:1017E000002B02D00248FFF757FF10BD0000000099
:1017F000A9160010F8B5C04601B40248844601BCE1
:10180000604700BF5901002001B40248844601BC72
:10181000604700BF8101002001B40248844601BC3A
:10182000604700BFC1000020CD0F0010F90F00106D
:10183000E1110010A11300103D1200100D13001053
:10184000091100101510001035100010491000107B
:10185000BD0500105110001031090010950F001047
:0C186000ED040010DD170010FD02001068
:10186C000300000002000000010000000000000066
:10187C000800000008000000060000000400000042
:10188C00020000000A2A2A2A2050414E4943202AED
:10189C002A2A0A000A0000004861726477617265A6
:1018AC0020616C61726D20256420616C72656164CD
:1018BC007920636C61696D65640000004861726435
:1018CC00206173736572740052656C656173650099
:1018DC00626F6F74325F77323571303830000000D0
:1018EC00322E322E300000007069636F0000000051
:1018FC00626C696E6B0000004665622032322032E9
:10190C003032360006005250D3F07542D418001015
:10191C0006005250E182887FDC18001006005250FD
:10192C00ABB36053EC18001006005250BBFF3CB632
:10193C00F418001006005250861C0302FC1800100C
:10194C00060052505422A29D04190010050052505A
:0C195C00DE65F468B01A00100D0A0000EF
:10196800101900101C190010281900103419001043
:0C197800401900104C1900105819001004
:10198400F0B5C646160000B504001F000268EFF368
:10199400108172B61368002BFCD0BFF35F8F042351
:1019A400E3562268002B2BDBBFF35F8F002010600F
:1019B40081F31088D02212061278002552B2904684
:1019C4009A420ED1002080BCB846F0BDBFF35F8FB1
:1019D400156081F310883000390000F035F80028D4
:1019E400F0D12268EFF3108172B61368002BFCD09B
:1019F400BFF35F8F237922687F2BE7D9434602E048
:101A0400D0231B061B682371BFF35F8F0023136071
:101A140081F310880120D6E70268EFF3108172B6D3
:101A24001368002BFCD0BFF35F8FFF23037103689F
:101A3400BFF35F8F00221A6081F3108840BF7047A4
:101A44007047C0460000000001B40248844601BC4F
:101A5400604700BF390B00101000000000000000B8
:101A64000000000000000000000000000000000072
:101A7400F001002000000000000000000000000051
:101A8400503300004C330000543300005233000044
:101A94004D5300004D430000533400004334000014
:0C1AA400200700200000000000000000EF
:04000005100001E9FD
:00000001FF
